:100000000C9441010C9472010C9472010C947201D5
:100010000C9472010C9472010C9472010C94720194
:100020000C9472010C94CE060C94CE060C94CE0661
:100030000C9472010C9472010C9472010C94720174
:100040000C9472010C9472010C9472010C94720164
:100050000C9472010C9472010C9472010C9424069D
:100060000C9472010C9498060C946E060C94720118
:100070000C9472010C9472010C9472010C94720134
:100080000C9472010C9472010C9472010C94720124
:100090000C9472010C9472010C9472010C94720114
:1000A0000C9472010C9472010C9472010C94720104
:1000B0000C9472010C9472010C9472010C947201F4
:1000C0000C9472010C9472010C9472010C947201E4
:1000D0000C9472010C9472010C9472010C947201D4
:1000E0000C9472010C9467030C9460020C942B0224
:1000F0000C944E020C944A020C9466020C94D8069E
:100100000C94FD030C9437020C945C020C94650271
:100110000C9458020C9464030C94F0050C94600346
:100120000C94B7030C943A020C9433020C9494038D
:100130000C94A3030C9425020C94C5030C94440264
:100140000C949B040C9452020C946A020C944A0482
:100150000C949C040C942F020C945C030C944002AD
:1001600000002100240027002A002D003000330069
:1001700001010000040107010A010000220025001E
:1001800028002B002E003100340002010000050180
:1001900008010B01000020002300260029002C008C
:1001A0002F003200000100000301060109010505CE
:1001B0000505070508080808020202020A0A0808DD
:1001C000040404040101010101010101030303030B
:1001D00003030303040707070C0C0C0C0C0C0C0C9A
:1001E0000202020206060606060606060B0B0B0BAB
:1001F0000B0B0B0B010210202008081020401020D0
:1002000040800201020108040201010204081020DA
:1002100040808040201008040201800402018040D8
:100220002010080402010804020101020408102041
:100230004080010204081020408000000A0B0209DF
:100240000C0D0E0807030401000000000000000070
:10025000000000000000000000000000000000009E
:10026000000000000000121110000000000000005B
:10027000000000000000000000000000000000007E
:10028000D80611241FBECFEFD1E2DEBFCDBF00E004
:100290000CBF12E0A0E0B2E0E8E1FBE100E00BBF40
:1002A00002C007900D92A03FB107D9F724E0A0EF5C
:1002B000B2E001C01D92AA32B207E1F711E0C1E439
:1002C000D1E000E006C021970109802FFE010E94C5
:1002D000740DC034D10780E00807A9F70E94920787
:1002E0000C948A0D0C94000096E0899FD001112493
:1002F000AD55BC4F90967C936E935F9791E091962D
:100300009C939197E0911004F091110490910F0447
:10031000992339F0309751F0811108C08091BF03C3
:100320001994309719F05C968C91FACF0895CF927A
:10033000DF92EF92FF920F931F9396E0899FF00157
:100340001124ED55FC4F11A2278D30A1213031052C
:1003500051F178F02230310509F451C023303105D4
:1003600009F452C01F910F91FF90EF90DF90CF9052
:1003700008956623B9F361E070E00E9474012FB71D
:10038000F8948091020390910303A0910403B0912B
:1003900005032FBF8093FB039093FC03A093FD0301
:1003A000B093FE03DFCF9FB7F894C0900203D090C4
:1003B0000303E0900403F09005039FBF0091FB034B
:1003C0001091FC032091FD033091FE03C01AD10A65
:1003D000E20AF30A00910D0410910E0430E020E0CF
:1003E0000C151D052E053F0550F462E070E01F91CD
:1003F0000F91FF90EF90DF90CF900C9474016111FA
:10040000B1CF63E070E0F3CF70E060E0F0CF8150F7
:10041000823108F05AC0E82FF0E08827ED5EFD4FEA
:100420008F4F0C94740D3302370225022B022F02DA
:1004300065023A02400244024A024E025202580247
:100440005C026502600266026A02809180008F771A
:10045000809380000895809180008F7DF9CF8091F6
:100460008000877FF5CF84B58F7784BD089584B5EC
:100470008F7DFBCF8091B0008F778093B00008957F
:100480008091B0008F7DF9CF809190008F7780931D
:1004900090000895809190008F7DF9CF8091900019
:1004A000877FF5CF8091A0008F778093A00008957B
:1004B0008091A0008F7DF9CF8091A000877FF5CF3C
:1004C000809120018F7780932001089580912001F1
:1004D0008F7DF9CF80912001877FF5CFCF93DF9378
:1004E000282F30E0F901E65CFD4F8491F901EC50D2
:1004F000FE4FD491F901E255FE4FC491CC23A1F0F7
:1005000081110E940702EC2FF0E0EE0FFF1FEC5666
:10051000FE4FA591B491EC91ED2381E090E009F4B8
:1005200080E0DF91CF91089580E090E0FACF1F93B3
:10053000CF93DF93282F30E0F901E65CFD4F8491E3
:10054000F901EC50FE4FD491F901E255FE4FC491F0
:10055000CC23A9F0162F81110E940702EC2FF0E0A6
:10056000EE0FFF1FE658FE4FA591B4918FB7F89498
:10057000EC91111108C0D095DE23DC938FBFDF9181
:10058000CF911F910895DE2BF8CFCF93DF9390E0AA
:10059000FC01EC50FE4F249182559E4FFC0184914A
:1005A0008823C9F090E0880F991FFC01E05AFE4FA4
:1005B000A591B491FC01E658FE4FC591D49161110B
:1005C0000DC09FB7F8948C91209582238C938881DD
:1005D000282328839FBFDF91CF910895623051F483
:1005E0009FB7F8943C91822F809583238C93E88168
:1005F0002E2BEFCF8FB7F894EC912E2B2C938FBF2F
:10060000EACF3FB7F8948091FE029091FF02A0914B
:100610000003B091010326B5A89B05C02F3F19F038
:100620000196A11DB11D3FBFBA2FA92F982F882772
:10063000BC01CD01620F711D811D911D42E0660F4D
:10064000771F881F991F4A95D1F708958F929F921F
:10065000AF92BF92CF92DF92EF92FF920E9401037E
:100660004B015C0180E9C82EDD24D394E12CF12CF0
:100670000E940103681979098A099B09683E734041
:1006800081059105A8F321E0C21AD108E108F1081B
:1006900088EE880E83E0981EA11CB11CC114D10401
:1006A000E104F10429F7FF90EF90DF90CF90BF9025
:1006B000AF909F908F900895862F642F0C94C50261
:1006C000862F642F0C949702862F0C946E02AF92A3
:1006D000BF92CF92DF92EF92FF920F931F93CF932F
:1006E000DF936C017B018B01040F151FEB015E0191
:1006F000AE18BF08C017D10759F06991D601ED9126
:10070000FC910190F081E02DC6011995892B79F7B4
:10071000C501DF91CF911F910F91FF90EF90DF9076
:10072000CF90BF90AF900895FC01538D448D252F3D
:1007300030E0842F90E0821B930B541710F0CF967B
:10074000089501970895FC01918D828D981761F0AD
:10075000A28DAE0FBF2FB11D5D968C91928D9F5FC4
:100760009F73928F90E008958FEF9FEF0895FC01A3
:10077000918D828D981731F0828DE80FF11D858D56
:1007800090E008958FEF9FEF0895FC01918D228DE9
:10079000892F90E0805C9F4F821B91098F7399276E
:1007A000089586E093E00E94C50321E0892B09F4B7
:1007B00020E0822F0895FC01A48DA80FB92FB11D50
:1007C000A35ABF4F2C91848D90E001968F73992787
:1007D000848FA689B7892C93A089B1898C91837065
:1007E00080648C93938D848D981306C00288F3895E
:1007F000E02D80818F7D80830895EF92FF920F938B
:100800001F93CF93DF93EC0181E0888F9B8D8C8DBC
:1008100098131AC0E889F989808185FF15C09FB7B0
:10082000F894EE89FF896083E889F9898081837073
:10083000806480839FBF81E090E0DF91CF911F9122
:100840000F91FF90EF900895F62E0B8D10E00F5F43
:100850001F4F0F731127E02E8C8D8E110CC00FB619
:1008600007FCFACFE889F989808185FFF5CFCE01B1
:100870000E94DB03F1CFEB8DEC0FFD2FF11DE35A4E
:10088000FF4FF0829FB7F8940B8FEA89FB89808134
:100890008062CFCFCF93DF93EC01888D8823B9F0AE
:1008A000AA89BB89E889F9898C9185FD03C080817B
:1008B00086FD0DC00FB607FCF7CF8C9185FFF2CFF8
:1008C000808185FFEDCFCE010E94DB03E9CFDF9170
:1008D000CF91089580E090E0892B29F00E94D10308
:1008E00081110E94000080E090E0892B49F080E0B7
:1008F00090E0892B29F00E94000081110E940000E5
:1009000080E090E0892B49F080E090E0892B29F08D
:100910000E94000081110E94000080E090E0892B7D
:1009200049F080E090E0892B29F00E9400008111BD
:100930000C9400000895089590E080E00895CF930E
:10094000DF93EC0160E08E810E94970261E08E816E
:100950000E94970260E08E810E9497028BE891E0EE
:100960000197F1F7DF91CF910895CF92DF92EF9247
:10097000FF920F931F93CF93DF936C017C0187E06D
:10098000E80EF11CD0E0C0E0062F10E0B8010C2EFC
:1009900002C0759567950A94E2F76170F70181913D
:1009A0007F010E9497022196C430D10579F7C601D4
:1009B000DF91CF911F910F91FF90EF90DF90CF903B
:1009C0000C949F04CF92DF92EF92FF920F931F93AC
:1009D000CF93DF93EC01F62E642F8C810E94970257
:1009E0008D818F3F19F060E00E9497020F2D10E07B
:1009F0008F8584FF25C06E0187E0C80ED11CF12CC5
:100A0000E12CB8010E2C02C0759567950A94E2F7A7
:100A10006170F60181916F010E949702FFEFEF1A5A
:100A2000FF0A88E0E816F10461F7CE01DF91CF916B
:100A30001F910F91FF90EF90DF90CF900C949F0447
:100A4000B80184E0759567958A95E1F7CE010E941B
:100A5000B5046F2DCE01DF91CF911F910F91FF90C3
:100A6000EF90DF90CF900C94B50440E0682F82E1C6
:100A700094E00C94E204CF93DF93823029F49091B8
:100A800021049860909321048093250410922604F9
:100A900080E48093270480E18093280480E580939C
:100AA000290461E0809116040E94C5028091170418
:100AB0008F3F19F061E00E94C50261E08091180447
:100AC0000E94C502C2E1D4E09E01225134408091CF
:100AD000210484FD0BC084E090E02196281739079B
:100AE00044F461E08E810E94C502EECF88E090E080
:100AF000F4CF8BE39DE00197F1F760E0809116045D
:100B00000E94970260E0809118040E9497028091F1
:100B100017048F3F19F060E00E9497028091210432
:100B200084FD39C063E082E194E00E94B504CBE427
:100B3000D6E4CE010197F1F763E082E194E00E94F0
:100B4000B5042197F1F763E082E194E00E94B504D7
:100B500083E592E00197F1F762E082E194E00E9480
:100B6000B5048091210480620E94350584E0809361
:100B700022048CE00E94350581E00E9435058BE35C
:100B80009FE10197F1F782E08093230486E0DF91F3
:100B9000CF910C94350580620E9435058BE496E474
:100BA0000197F1F78091210480620E94350583E569
:100BB00092E00197F1F78091210480620E9435054F
:100BC000D0CF90912504691710F06FEF690FE62FD1
:100BD000F0E0EE5EFB4F9489890F80680C94350538
:100BE00041E00E94E20481E090E00895FB01019061
:100BF0000020E9F73197AF01461B570BDC01ED915F
:100C0000FC910280F381E02D1994CF93DF93BC0116
:100C100086E093E00E94F605EC0162E472E086E073
:100C200093E00E94F6058C0F9D1FDF91CF910895F0
:100C3000E2EFF2E084E0DF011D928A95E9F710927D
:100C4000F7021092F60208951F920F920FB60F92BC
:100C500011242F933F938F939F93AF93BF938091D2
:100C6000020390910303A0910403B0910503309116
:100C7000FD0223E0230F2D3758F50196A11DB11D6C
:100C80002093FD028093020390930303A093040337
:100C9000B09305038091FE029091FF02A0910003A2
:100CA000B09101030196A11DB11D8093FE029093A6
:100CB000FF02A0930003B0930103BF91AF919F91F6
:100CC0008F913F912F910F900FBE0F901F9018950D
:100CD00026E8230F0296A11DB11DD2CF1F920F92BD
:100CE0000FB60F9211240BB60F922F933F934F9391
:100CF0005F936F937F938F939F93AF93BF93EF9384
:100D0000FF9386E093E00E94DB03FF91EF91BF9198
:100D1000AF919F918F917F916F915F914F913F9193
:100D20002F910F900BBE0F900FBE0F901F90189534
:100D30001F920F920FB60F9211240BB60F922F93A2
:100D40008F939F93EF93FF93E0911603F091170316
:100D50008081E0911C03F0911D0382FD1DC09081F4
:100D600080911F038F5F8F7320912003821741F0C2
:100D7000E0911F03F0E0EA5FFC4F958F80931F0323
:100D8000FF91EF919F918F912F910F900BBE0F903C
:100D90000FBE0F901F9018958081F2CF1F920F9277
:100DA0000FB60F9211240F900FBE0F901F90189541
:100DB000109209031092080388EE93E0A0E0B0E0DF
:100DC00080930A0390930B03A0930C03B0930D033D
:100DD0008EE192E0909307038093060385EC90E008
:100DE000909313038093120384EC90E09093150387
:100DF0008093140380EC90E0909317038093160384
:100E000081EC90E0909319038093180382EC90E0BA
:100E100090931B0380931A0386EC90E090931D033C
:100E200080931C0310921F03109220031092210341
:100E30001092220310921504109214048AE392E097
:100E4000909313048093120487E0809316048FEF2D
:100E50008093170486E08093180485E0809319043A
:100E600084E080931A0483E080931B0482E08093E3
:100E70001C0410921D0410921E0410921F04109264
:100E800020041092210481E00E943B051092A503EA
:100E90001092A9031092A8031092AA0380E392E093
:100EA0009093A4038093A303EFEBF3E010821482EA
:100EB00013821582369683E0EB3FF807B9F78AE094
:100EC00092E0909306048093050487E092E090936B
:100ED00008048093070484E08093090483E08093EE
:100EE0000A048EE092E090930404809303048AE065
:100EF00090E090930C0480930B0484EF91E0909326
:100F00000E0480930D04109211041092100410929C
:100F1000FF03109200041092010410920204109238
:100F20000F040895CF93DF93CDB7DEB7A1970FB627
:100F3000F894DEBF0FBECDBF789484B5826084BDC7
:100F400084B5816084BD85B5826085BD85B58160CD
:100F500085BD80916E00816080936E00109281004B
:100F60008091810082608093810080918100816006
:100F700080938100809180008160809380008091C7
:100F8000B10084608093B1008091B0008160809353
:100F9000B0008091910082608093910080919100D7
:100FA0008160809391008091900081608093900097
:100FB0008091A10082608093A1008091A100816056
:100FC0008093A1008091A00081608093A000809117
:100FD00021018260809321018091210181608093B1
:100FE00021018091200181608093200180917A000D
:100FF000846080937A0080917A00826080937A0086
:1010000080917A00816080937A0080917A00806874
:1010100080937A001092C100E0911603F0911703BB
:1010200082E08083E0911203F09113031082E0913B
:101030001403F09115038FEC808310921E03E0914E
:101040001A03F0911B0386E08083E0911803F0916E
:101050001903808180618083E0911803F091190366
:10106000808188608083E0911803F091190380816A
:1010700080688083E0911803F091190380818F7D4F
:10108000808360E086E30E94C50261E085E10E9402
:10109000C50260E087E30E94C50261E082E10E9430
:1010A000C50261E083E10E94C50261E084E10E9423
:1010B000C50261E088E00E94C50261E089E00E940B
:1010C000C50261E08AE00E94C50261E08BE00E94F7
:1010D000C50282E00E943B053AE0432E512C612C70
:1010E000712C43E0242E312C86E30E946E02209165
:1010F000FB023091FC028217930799F09093FC0257
:101100008093FB02019709F004C161E085E10E9430
:10111000970261E08AE00E94970285E492E00E94D3
:10112000050687E30E946E022091FA0221111AC07F
:101130002091F8023091F9028217930799F0909369
:10114000F9028093F802019709F0ECC061E082E1B6
:101150000E94970261E08BE00E94970284E592E092
:101160000E94050680917B00877F80937B0052E47C
:1011700050937C0080917A00806480937A00809103
:101180007A0086FDFCCF6091780070917900072E7F
:10119000000C880B990B0E94590C20E030EC4FE7B3
:1011A00054E40E94AF0B20E030E44CE955E40E9487
:1011B000E50C20E030E040E251E40E94AF0B2AE968
:1011C00039E949E95EE30E94430B0E94210C6B015F
:1011D0008B0160E080E00E94E10565E672E082E15B
:1011E00094E00E94F60560E08CE00E94E1050D2C81
:1011F000000CEE08FF08F7FE9EC041E06DE282E1C0
:1012000094E00E94E20422273327A9012C193D090A
:101210004E095F0919A2CE0181967C01CA01B9016C
:10122000A30192010E94520D605DF70162937F015C
:10123000211531054105510589F7E114F10429F023
:10124000B70182E194E00E94F60560E08EE00E9422
:10125000E10563E772E082E194E00E94F605043163
:1012600011050CF07EC08091050290910602019755
:10127000C1F061E080E00E94E10565E772E082E193
:1012800094E00E94F60560E088E00E94970285E8FD
:1012900092E00E94050681E090E090930602809320
:1012A000050281E080930F048FB7F8944091020308
:1012B0005091030360910403709105038FBF8091E7
:1012C000FF0390910004A0910104B0910204481B17
:1012D000590B6A0B7B0B80910B0490910C04B0E0CE
:1012E000A0E084179507A607B70708F075C110E0BE
:1012F00080910904181708F06AC0E0910504F09184
:101300000604E10FF11D62E080810E94C5021F5FAB
:10131000EFCF60E085E10E94970260E08AE00E94E2
:101320009702FFCE60E082E10E94970260E08BE0CE
:101330000E94970217CFA701960119A2CE018196AC
:101340007C01CA01B901A30192010E94520D605DA6
:10135000F70162937F01211531054105510589F798
:101360006CCF0F31110504F18091050290910602B6
:10137000029709F496CF61E080E00E94E10566E9FA
:1013800072E082E194E00E94F60561E088E00E944C
:10139000970287EA92E00E940506E2E0F0E0F0930F
:1013A0000602E09305027DCF61E080E00E94E10546
:1013B00069EB72E082E194E00E94F60560E088E06B
:1013C0000E94970230920602209205026ACF912C69
:1013D00080910A04981608F063C0E92CF12CE09182
:1013E0000704F0910804EE0DFF1D61E080810E946A
:1013F000C502E0910704F0910804EE0DFF1D60E0C6
:1014000080810E94970281E090E0A0E0B0E0092C8A
:1014100004C0880F991FAA1FBB1F0A94D2F75C0152
:101420006C01C094D094812C80910904881608F531
:10143000082D10E0E0910504F0910604E00FF11F83
:1014400080810E946E020C5F1F4F000F111FF80178
:10145000ED55FC4F892B41F4808191818A299B298C
:10146000918380838394E0CF808191818C219D2121
:10147000F7CFE0910704F0910804EE0DFF1D61E045
:1014800080810E9497028091070490910804E80EE1
:10149000F91E60E0F70180810E94C502939498CF05
:1014A00003EA13E0F801878D90A1892B31F4148EA3
:1014B0008FEF9FEF968F858F11A2369693E0EF3DC9
:1014C000F90789F7F12C80910904F81608F053C048
:1014D000E12CCF2CD12CCC0CDD1CF601E555FC4FBA
:1014E0006F0120910A04E21608F043C0F601608102
:1014F00071810E2C02C0769567950A94E2F7F29EF0
:10150000900111242E0D311DE3EAF3E080E0458DBA
:10151000568D2417350709F4B3C08F5F36968A308D
:10152000B1F760FF24C0E3EAF3E090E080E0448D8F
:10153000411118C0E0910304F0910404E20FF31F7D
:10154000408156E0589FF001599FF00D1124ED5550
:10155000FC4F448F368F258F10A2178E61E00E94BA
:10156000970105C0019636968A30910501F7E394FC
:10157000B8CFF394A8CF80E0F80191A19111892F01
:101580000A5F1F4FF3E00F3D1F07B1F79FB7F894B5
:10159000409102035091030360910403709105038D
:1015A0009FBF4093FF035093000460930104709326
:1015B0000204882389F08091C403882369F0809114
:1015C000C2039091C303019739F42091BF03211105
:1015D00006C00E946A0488CD10920F04FACF23320D
:1015E00049F40E94180660E089E00E949702109278
:1015F000FA02EFCF8091F6029091F702AC014F5FB3
:101600005F4F5093F7024093F6028E509D4FFC01BE
:10161000208344305105E9F644E050E060E072E098
:1016200082EF92E00E947C0D61E0892BB9F483E1A6
:101630000E94970261E089E00E9497028AEC92E0A2
:101640000E94050681E08093FA020E94260360E072
:1016500083E10E9497020E941806BBCF84E10E949A
:10166000970260E089E00E9497028CED92E00E9470
:1016700005061092FA020E94260360E084E1E9CF99
:1016800061706DCF5058BB27AA270E945A0B0C944B
:10169000AB0C0E949D0C38F00E94A40C20F039F491
:1016A0009F3F19F426F40C949A0C0EF4E095E7FB96
:1016B0000C94940CE92F0E94BC0C58F3BA176207E3
:1016C00073078407950720F079F4A6F50C94DE0CD7
:1016D0000EF4E0950B2EBA2FA02D0B01B90190014D
:1016E0000C01CA01A0011124FF27591B99F0593F91
:1016F00050F4503E68F11A16F040A22F232F342FD9
:101700004427585FF3CF469537952795A795F04026
:101710005395C9F77EF41F16BA0B620B730B840B3B
:10172000BAF09150A1F0FF0FBB1F661F771F881FF3
:10173000C2F70EC0BA0F621F731F841F48F487954B
:1017400077956795B795F7959E3F08F0B0CF93953D
:10175000880F08F09927EE0F9795879508950E94B6
:10176000C30B0C94AB0C0E94A40C58F00E949D0C6F
:1017700040F029F45F3F29F00C94940C51110C9423
:10178000DF0C0C949A0C0E94BC0C68F39923B1F303
:10179000552391F3951B550BBB27AA276217730797
:1017A000840738F09F5F5F4F220F331F441FAA1F2B
:1017B000A9F335D00E2E3AF0E0E832D091505040E7
:1017C000E695001CCAF72BD0FE2F29D0660F771F95
:1017D000881FBB1F261737074807AB07B0E809F07B
:1017E000BB0B802DBF01FF2793585F4F3AF09E3F00
:1017F000510578F00C94940C0C94DF0C5F3FE4F3EB
:10180000983ED4F3869577956795B795F7959F5F42
:10181000C9F7880F911D9695879597F90895E1E08E
:10182000660F771F881FBB1F621773078407BA07ED
:1018300020F0621B730B840BBA0BEE1F88F7E09548
:1018400008950E94280C6894B1110C94DF0C08953F
:101850000E94C40C88F09F5798F0B92F9927B75170
:10186000B0F0E1F0660F771F881F991F1AF0BA9544
:10187000C9F714C0B13091F00E94DE0CB1E00895B8
:101880000C94DE0C672F782F8827B85F39F0B93FAA
:10189000CCF3869577956795B395D9F73EF49095F7
:1018A0008095709561957F4F8F4F9F4F0895E89475
:1018B00009C097FB3EF490958095709561957F4F98
:1018C0008F4F9F4F9923A9F0F92F96E9BB27939546
:1018D000F695879577956795B795F111F8CFFAF456
:1018E000BB0F11F460FF1BC06F5F7F4F8F4F9F4F87
:1018F00016C0882311F096E911C0772321F09EE8E5
:10190000872F762F05C0662371F096E8862F70E04A
:1019100060E02AF09A95660F771F881FDAF7880F24
:101920009695879597F9089597F99F6780E870E0F5
:1019300060E008959FEF80EC089500240A94161645
:10194000170618060906089500240A9412161306AD
:10195000140605060895092E0394000C11F488233B
:1019600052F0BB0F40F4BF2B11F460FF04C06F5F57
:101970007F4F8F4F9F4F089557FD9058440F551F2D
:1019800059F05F3F71F04795880F97FB991F61F001
:101990009F3F79F087950895121613061406551F78
:1019A000F2CF4695F1DF08C0161617061806991FE4
:1019B000F1CF86957105610508940895E894BB27D9
:1019C00066277727CB0197F908950E94F80C0C94AD
:1019D000AB0C0E949D0C38F00E94A40C20F09523C3
:1019E00011F00C94940C0C949A0C11240C94DF0CB0
:1019F0000E94BC0C70F3959FC1F3950F50E0551FEA
:101A0000629FF001729FBB27F00DB11D639FAA2753
:101A1000F00DB11DAA1F649F6627B00DA11D661FA2
:101A2000829F2227B00DA11D621F739FB00DA11DC3
:101A3000621F839FA00D611D221F749F3327A00D7D
:101A4000611D231F849F600D211D822F762F6A2F19
:101A500011249F5750409AF0F1F088234AF0EE0F7E
:101A6000FF1FBB1F661F771F881F91505040A9F7AB
:101A70009E3F510580F00C94940C0C94DF0C5F3F5A
:101A8000E4F3983ED4F3869577956795B795F795E7
:101A9000E7959F5FC1F7FE2B880F911D969587955F
:101AA00097F90895A1E21A2EAA1BBB1BFD010DC0D8
:101AB000AA1FBB1FEE1FFF1FA217B307E407F507FE
:101AC00020F0A21BB30BE40BF50B661F771F881FDA
:101AD000991F1A9469F760957095809590959B0170
:101AE000AC01BD01CF010895EE0FFF1F881F8BBF12
:101AF0000790F691E02D1994FB01DC014150504014
:101B000030F08D910190801919F40020B9F7881BED
:081B1000990B0895F894FFCF32
:101B1800313539370001003B3C3D3E3F40413132D1
:101B2800333435363738392A302300000000FD03B6
:101B3800670394034A04C503A303B7030000000026
:101B48005C036003640300000000F00567039C0465
:101B58009B040D0A004649524520444554454354C8
:101B6800454421004D4F54494F4E20444554454368
:101B7800544544210054454D504552415455524511
:101B88003A200043004C4F572054454D5045524190
:101B980054555245004C4F572054454D50455241DD
:101BA800545552452100484947482054454D504511
:101BB80052415455524500484947482054454D50D4
:101BC8004552415455524521004E4F524D205445DF
:101BD8004D50455241545552450050415353574F6B
:101BE800524420434F5252454354210050415353CD
:101BF800574F524420494E434F52524543542100B7
:00000001FF
